{
  "_format": "hh-sol-artifact-1",
  "contractName": "Election",
  "sourceName": "contracts/Election.sol",
  "abi": [
    {
      "inputs": [
        {
          "internalType": "address",
          "name": "_owner",
          "type": "address"
        }
      ],
      "stateMutability": "nonpayable",
      "type": "constructor"
    },
    {
      "anonymous": false,
      "inputs": [
        {
          "indexed": false,
          "internalType": "string",
          "name": "_name",
          "type": "string"
        },
        {
          "indexed": false,
          "internalType": "address",
          "name": "_owner",
          "type": "address"
        },
        {
          "indexed": false,
          "internalType": "uint256",
          "name": "_id",
          "type": "uint256"
        }
      ],
      "name": "PartyRegistered",
      "type": "event"
    },
    {
      "anonymous": false,
      "inputs": [
        {
          "indexed": false,
          "internalType": "address",
          "name": "_address",
          "type": "address"
        },
        {
          "indexed": false,
          "internalType": "uint256",
          "name": "_partyId",
          "type": "uint256"
        }
      ],
      "name": "Unvoted",
      "type": "event"
    },
    {
      "anonymous": false,
      "inputs": [
        {
          "indexed": false,
          "internalType": "address",
          "name": "_address",
          "type": "address"
        },
        {
          "indexed": false,
          "internalType": "uint256",
          "name": "_partyId",
          "type": "uint256"
        }
      ],
      "name": "Voted",
      "type": "event"
    },
    {
      "inputs": [],
      "name": "owner",
      "outputs": [
        {
          "internalType": "address",
          "name": "",
          "type": "address"
        }
      ],
      "stateMutability": "view",
      "type": "function"
    },
    {
      "inputs": [
        {
          "internalType": "uint256",
          "name": "",
          "type": "uint256"
        }
      ],
      "name": "parties",
      "outputs": [
        {
          "internalType": "string",
          "name": "",
          "type": "string"
        }
      ],
      "stateMutability": "view",
      "type": "function"
    },
    {
      "inputs": [
        {
          "internalType": "string",
          "name": "",
          "type": "string"
        }
      ],
      "name": "partyId",
      "outputs": [
        {
          "internalType": "uint256",
          "name": "",
          "type": "uint256"
        }
      ],
      "stateMutability": "view",
      "type": "function"
    },
    {
      "inputs": [
        {
          "internalType": "address",
          "name": "",
          "type": "address"
        }
      ],
      "name": "partyOf",
      "outputs": [
        {
          "internalType": "uint256",
          "name": "",
          "type": "uint256"
        }
      ],
      "stateMutability": "view",
      "type": "function"
    },
    {
      "inputs": [],
      "name": "partySize",
      "outputs": [
        {
          "internalType": "uint256",
          "name": "",
          "type": "uint256"
        }
      ],
      "stateMutability": "view",
      "type": "function"
    },
    {
      "inputs": [
        {
          "internalType": "string",
          "name": "_name",
          "type": "string"
        }
      ],
      "name": "registerParty",
      "outputs": [
        {
          "internalType": "bool",
          "name": "",
          "type": "bool"
        }
      ],
      "stateMutability": "nonpayable",
      "type": "function"
    },
    {
      "inputs": [],
      "name": "unvote",
      "outputs": [
        {
          "internalType": "bool",
          "name": "success",
          "type": "bool"
        }
      ],
      "stateMutability": "nonpayable",
      "type": "function"
    },
    {
      "inputs": [
        {
          "internalType": "string",
          "name": "_partyName",
          "type": "string"
        }
      ],
      "name": "vote",
      "outputs": [
        {
          "internalType": "bool",
          "name": "success",
          "type": "bool"
        }
      ],
      "stateMutability": "nonpayable",
      "type": "function"
    },
    {
      "inputs": [
        {
          "internalType": "address",
          "name": "",
          "type": "address"
        }
      ],
      "name": "voters",
      "outputs": [
        {
          "internalType": "uint256",
          "name": "",
          "type": "uint256"
        }
      ],
      "stateMutability": "view",
      "type": "function"
    },
    {
      "inputs": [
        {
          "internalType": "uint256",
          "name": "",
          "type": "uint256"
        }
      ],
      "name": "votes",
      "outputs": [
        {
          "internalType": "uint256",
          "name": "",
          "type": "uint256"
        }
      ],
      "stateMutability": "view",
      "type": "function"
    }
  ],
  "bytecode": "0x60806040526000600655600160075534801561001a57600080fd5b50604051611680380380611680833981810160405281019061003c91906100e5565b806000806101000a81548173ffffffffffffffffffffffffffffffffffffffff021916908373ffffffffffffffffffffffffffffffffffffffff16021790555050610112565b600080fd5b600073ffffffffffffffffffffffffffffffffffffffff82169050919050565b60006100b282610087565b9050919050565b6100c2816100a7565b81146100cd57600080fd5b50565b6000815190506100df816100b9565b92915050565b6000602082840312156100fb576100fa610082565b5b6000610109848285016100d0565b91505092915050565b61155f806101216000396000f3fe608060405234801561001057600080fd5b506004361061009e5760003560e01c80638da5cb5b116100665780638da5cb5b1461016f578063941132b51461018d5780639f926182146101bd578063a3ec138d146101ed578063fc36e15b1461021d5761009e565b8063028659f1146100a35780632cea2d3b146100c15780633174b689146100f15780635df813301461010f57806370651a181461013f575b600080fd5b6100ab61024d565b6040516100b89190610920565b60405180910390f35b6100db60048036038101906100d691906109ad565b610253565b6040516100e89190610920565b60405180910390f35b6100f961026b565b60405161010691906109f5565b60405180910390f35b61012960048036038101906101249190610a3c565b6103e9565b6040516101369190610920565b60405180910390f35b61015960048036038101906101549190610a3c565b610401565b6040516101669190610af9565b60405180910390f35b6101776104a1565b6040516101849190610b2a565b60405180910390f35b6101a760048036038101906101a29190610c7a565b6104c5565b6040516101b49190610920565b60405180910390f35b6101d760048036038101906101d29190610d23565b6104f3565b6040516101e491906109f5565b60405180910390f35b610207600480360381019061020291906109ad565b6106b6565b6040516102149190610920565b60405180910390f35b61023760048036038101906102329190610d23565b6106ce565b60405161024491906109f5565b60405180910390f35b60065481565b60036020528060005260406000206000915090505481565b6000803390506000600460008373ffffffffffffffffffffffffffffffffffffffff1673ffffffffffffffffffffffffffffffffffffffff16815260200190815260200160002054036102f3576040517f08c379a00000000000000000000000000000000000000000000000000000000081526004016102ea90610dbc565b60405180910390fd5b6000600460008373ffffffffffffffffffffffffffffffffffffffff1673ffffffffffffffffffffffffffffffffffffffff1681526020019081526020016000205490506000600460008473ffffffffffffffffffffffffffffffffffffffff1673ffffffffffffffffffffffffffffffffffffffff1681526020019081526020016000208190555060016005600083815260200190815260200160002060008282546103a09190610e0b565b925050819055507fd287d65f00b2945fc3950b18fff794f7b1d3f13703488ce8fba053f692af59a482826040516103d8929190610e3f565b60405180910390a160019250505090565b60056020528060005260406000206000915090505481565b6001602052806000526040600020600091509050805461042090610e97565b80601f016020809104026020016040519081016040528092919081815260200182805461044c90610e97565b80156104995780601f1061046e57610100808354040283529160200191610499565b820191906000526020600020905b81548152906001019060200180831161047c57829003601f168201915b505050505081565b60008054906101000a900473ffffffffffffffffffffffffffffffffffffffff1681565b6002818051602081018201805184825260208301602085012081835280955050505050506000915090505481565b6000806000905060005b600754811015610562578484604051610517929190610ef8565b60405180910390206001600083815260200190815260200160002060405161053f9190610fa9565b6040518091039020036105555760019150610562565b80806001019150506104fd565b5080156105a4576040517f08c379a000000000000000000000000000000000000000000000000000000000815260040161059b9061100c565b60405180910390fd5b600754600285856040516105b992919061105c565b908152602001604051809103902081905550838360016000600754815260200190815260200160002091826105ef92919061122c565b506000339050600754600360008373ffffffffffffffffffffffffffffffffffffffff1673ffffffffffffffffffffffffffffffffffffffff168152602001908152602001600020819055507fe54ea4f0b0227e87269d6e1bb823819710821d6753c1db3f0a0fedbbe28e9d788585836007546040516106729493929190611329565b60405180910390a16006600081548092919061068d90611369565b9190505550600760008154809291906106a590611369565b919050555060019250505092915050565b60046020528060005260406000206000915090505481565b600080600284846040516106e392919061105c565b908152602001604051809103902054905060008103610737576040517f08c379a000000000000000000000000000000000000000000000000000000000815260040161072e906113fd565b60405180910390fd5b600033905060008054906101000a900473ffffffffffffffffffffffffffffffffffffffff1673ffffffffffffffffffffffffffffffffffffffff168173ffffffffffffffffffffffffffffffffffffffff16036107ca576040517f08c379a00000000000000000000000000000000000000000000000000000000081526004016107c190611469565b60405180910390fd5b6000600460008373ffffffffffffffffffffffffffffffffffffffff1673ffffffffffffffffffffffffffffffffffffffff1681526020019081526020016000205490506000811115610852576040517f08c379a0000000000000000000000000000000000000000000000000000000008152600401610849906114d5565b60405180910390fd5b82600460008473ffffffffffffffffffffffffffffffffffffffff1673ffffffffffffffffffffffffffffffffffffffff1681526020019081526020016000208190555060016005600085815260200190815260200160002060008282546108ba91906114f5565b925050819055507f4d99b957a2bc29a30ebd96a7be8e68fe50a3c701db28a91436490b7d53870ca482846040516108f2929190610e3f565b60405180910390a16001935050505092915050565b6000819050919050565b61091a81610907565b82525050565b60006020820190506109356000830184610911565b92915050565b6000604051905090565b600080fd5b600080fd5b600073ffffffffffffffffffffffffffffffffffffffff82169050919050565b600061097a8261094f565b9050919050565b61098a8161096f565b811461099557600080fd5b50565b6000813590506109a781610981565b92915050565b6000602082840312156109c3576109c2610945565b5b60006109d184828501610998565b91505092915050565b60008115159050919050565b6109ef816109da565b82525050565b6000602082019050610a0a60008301846109e6565b92915050565b610a1981610907565b8114610a2457600080fd5b50565b600081359050610a3681610a10565b92915050565b600060208284031215610a5257610a51610945565b5b6000610a6084828501610a27565b91505092915050565b600081519050919050565b600082825260208201905092915050565b60005b83811015610aa3578082015181840152602081019050610a88565b60008484015250505050565b6000601f19601f8301169050919050565b6000610acb82610a69565b610ad58185610a74565b9350610ae5818560208601610a85565b610aee81610aaf565b840191505092915050565b60006020820190508181036000830152610b138184610ac0565b905092915050565b610b248161096f565b82525050565b6000602082019050610b3f6000830184610b1b565b92915050565b600080fd5b600080fd5b7f4e487b7100000000000000000000000000000000000000000000000000000000600052604160045260246000fd5b610b8782610aaf565b810181811067ffffffffffffffff82111715610ba657610ba5610b4f565b5b80604052505050565b6000610bb961093b565b9050610bc58282610b7e565b919050565b600067ffffffffffffffff821115610be557610be4610b4f565b5b610bee82610aaf565b9050602081019050919050565b82818337600083830152505050565b6000610c1d610c1884610bca565b610baf565b905082815260208101848484011115610c3957610c38610b4a565b5b610c44848285610bfb565b509392505050565b600082601f830112610c6157610c60610b45565b5b8135610c71848260208601610c0a565b91505092915050565b600060208284031215610c9057610c8f610945565b5b600082013567ffffffffffffffff811115610cae57610cad61094a565b5b610cba84828501610c4c565b91505092915050565b600080fd5b600080fd5b60008083601f840112610ce357610ce2610b45565b5b8235905067ffffffffffffffff811115610d0057610cff610cc3565b5b602083019150836001820283011115610d1c57610d1b610cc8565b5b9250929050565b60008060208385031215610d3a57610d39610945565b5b600083013567ffffffffffffffff811115610d5857610d5761094a565b5b610d6485828601610ccd565b92509250509250929050565b7f596f752068617665206e6f20766f746500000000000000000000000000000000600082015250565b6000610da6601083610a74565b9150610db182610d70565b602082019050919050565b60006020820190508181036000830152610dd581610d99565b9050919050565b7f4e487b7100000000000000000000000000000000000000000000000000000000600052601160045260246000fd5b6000610e1682610907565b9150610e2183610907565b9250828203905081811115610e3957610e38610ddc565b5b92915050565b6000604082019050610e546000830185610b1b565b610e616020830184610911565b9392505050565b7f4e487b7100000000000000000000000000000000000000000000000000000000600052602260045260246000fd5b60006002820490506001821680610eaf57607f821691505b602082108103610ec257610ec1610e68565b5b50919050565b600081905092915050565b6000610edf8385610ec8565b9350610eec838584610bfb565b82840190509392505050565b6000610f05828486610ed3565b91508190509392505050565b60008190508160005260206000209050919050565b60008154610f3381610e97565b610f3d8186610ec8565b94506001821660008114610f585760018114610f6d57610fa0565b60ff1983168652811515820286019350610fa0565b610f7685610f11565b60005b83811015610f9857815481890152600182019150602081019050610f79565b838801955050505b50505092915050565b6000610fb58284610f26565b915081905092915050565b7f53756368207061727479206e616d6520616c7265616479206578697374730000600082015250565b6000610ff6601e83610a74565b915061100182610fc0565b602082019050919050565b6000602082019050818103600083015261102581610fe9565b9050919050565b600081905092915050565b6000611043838561102c565b9350611050838584610bfb565b82840190509392505050565b6000611069828486611037565b91508190509392505050565b600082905092915050565b60008190508160005260206000209050919050565b60006020601f8301049050919050565b600082821b905092915050565b6000600883026110e27fffffffffffffffffffffffffffffffffffffffffffffffffffffffffffffffff826110a5565b6110ec86836110a5565b95508019841693508086168417925050509392505050565b6000819050919050565b600061112961112461111f84610907565b611104565b610907565b9050919050565b6000819050919050565b6111438361110e565b61115761114f82611130565b8484546110b2565b825550505050565b600090565b61116c61115f565b61117781848461113a565b505050565b5b8181101561119b57611190600082611164565b60018101905061117d565b5050565b601f8211156111e0576111b181611080565b6111ba84611095565b810160208510156111c9578190505b6111dd6111d585611095565b83018261117c565b50505b505050565b600082821c905092915050565b6000611203600019846008026111e5565b1980831691505092915050565b600061121c83836111f2565b9150826002028217905092915050565b6112368383611075565b67ffffffffffffffff81111561124f5761124e610b4f565b5b6112598254610e97565b61126482828561119f565b6000601f8311600181146112935760008415611281578287013590505b61128b8582611210565b8655506112f3565b601f1984166112a186611080565b60005b828110156112c9578489013582556001820191506020850194506020810190506112a4565b868310156112e657848901356112e2601f8916826111f2565b8355505b6001600288020188555050505b50505050505050565b60006113088385610a74565b9350611315838584610bfb565b61131e83610aaf565b840190509392505050565b600060608201905081810360008301526113448186886112fc565b90506113536020830185610b1b565b6113606040830184610911565b95945050505050565b600061137482610907565b91507fffffffffffffffffffffffffffffffffffffffffffffffffffffffffffffffff82036113a6576113a5610ddc565b5b600182019050919050565b7f4e6f20706172747920666f756e6420627920676976656e206e616d6500000000600082015250565b60006113e7601c83610a74565b91506113f2826113b1565b602082019050919050565b60006020820190508181036000830152611416816113da565b9050919050565b7f596f752063616e6e6f7420766f746520666f7220796f757273656c6600000000600082015250565b6000611453601c83610a74565b915061145e8261141d565b602082019050919050565b6000602082019050818103600083015261148281611446565b9050919050565b7f596f7520616c726561647920766f746564000000000000000000000000000000600082015250565b60006114bf601183610a74565b91506114ca82611489565b602082019050919050565b600060208201905081810360008301526114ee816114b2565b9050919050565b600061150082610907565b915061150b83610907565b925082820190508082111561152357611522610ddc565b5b9291505056fea264697066735822122006fcf8c8a95cf43fbaa921ce1c9b3339c53388ae930d0f84c626e5db6edb5cef64736f6c634300081b0033",
  "linkReferences": {},
  "deployedLinkReferences": {}
}